:020000040800F2
:100000000000022099070008990600089B060008D6
:100010009D0600089F060008A106000800000000D9
:10002000000000000000000000000000A30600081F
:10003000A506000800000000A7060008A9060008A1
:10004000E1070008E1070008E1070008E1070008F0
:10005000E1070008E1070008E1070008E1070008E0
:10006000E1070008E1070008E1070008E1070008D0
:10007000E1070008E1070008E1070008E1070008C0
:10008000E1070008E1070008E1070008E1070008B0
:10009000E1070008E1070008E1070008E1070008A0
:1000A000E1070008E1070008E1070008E107000890
:1000B000E1070008E1070008E1070008E107000880
:1000C000E1070008E1070008E1070008E107000870
:1000D000E1070008E1070008E1070008E107000860
:1000E000E1070008E1070008E1070008E107000850
:1000F000E1070008E1070008E1070008E107000840
:10010000E1070008E1070008E1070008E10700082F
:10011000E1070008E1070008E1070008E10700081F
:10012000E1070008E1070008E1070008E10700080F
:1001300000000000E1070008E1070008E1070008EF
:10014000E1070008000000000000000000000000BF
:10015000000000000000000000000000000000009F
:10016000000000000000000000000000000000008F
:10017000000000000000000000000000000000007F
:10018000000000000000000000000000000000006F
:10019000000000000000000000000000000000005F
:1001A000000000000000000000000000000000004F
:1001B000000000000000000000000000000000003F
:1001C000000000000000000000000000000000002F
:1001D000000000000000000000000000000000001F
:0401E0005FF8E0F1F3
:1001E40010B5054C237833B9044B13B10448AFF36D
:1001F40000800123237010BD88000020000000004F
:100204009412000808B5034B1BB103490348AFF32C
:10021400008008BD000000008C000020941200083B
:1002240070B582B004460D4B53F8200000F040F93D
:100234000B4B33F81450ADF8045080238DF807307D
:1002440003238DF80630074E01A956F8240000F068
:100254006DF856F824305D6102B070BDE4120008F8
:10026400EC12000818000020044B53F82020D36837
:10027400034931F810104B40D36070471800002038
:10028400EC12000870B582B004460D461F4B53F8BB
:1002940020001F4B53F82430184300F009F97CBBAD
:1002A4001C4B53F8240000F003F988238DF8073021
:1002B400194B33F81430ADF8043003238DF80630AD
:1002C40001A9164B53F8240000F030F804238DF8EC
:1002D4000730134B33F81430ADF8043001A9114B37
:1002E40053F8240000F022F80F4E294656F8240053
:1002F40000F0EEF856F8240000F038F902B070BDB2
:10030400044B53F8240000F0DBF8CEE7D4120008C5
:10031400C8120008DC120008D012000808000020EF
:10032400C4120008000000201000002030B5CB7873
:1003340003F00F02944613F0800F05D10B781BB322
:1003440005680122002308E091F802C04CEA020C7F
:10035400F4E742610133DBB25200072B13D80C8857
:100364001442F7D09C004FF00F0E0EFA04FE25EA5B
:100374000E050CFA04F42543CC78282CE9D0482C3B
:10038400E8D10261E6E705600B8813F47F4F21D0C2
:1003940045684FF48074082303E044610133DBB201
:1003A40064000F2B15D80A882242F7D0A3F1080263
:1003B40092004FF00F0E0EFA02FE25EA0E050CFA1B
:1003C40002F21543CA78282AE7D0482AE6D1046104
:1003D400E4E7456030BD0000104B5B6803F00303A5
:1003E400022B01D00E4870470C4B5868C0F3834071
:1003F40002305B68C3F3004213F4803F03D1094B1E
:1004040003FB00F07047064B03FB00F0034B5B68F3
:10041400C3F340439A42E6D14008704700100240BB
:1004240000127A0000093D0000B585B0094B0FCBDE
:100434000DF1100C0CE90F00FFF7CEFF064B5B68C3
:10044400C3F3031310336B4413F8103CD84005B0C6
:100454005DF804FBAC1200080010024030B583B014
:1004640005460C46104B93E8030002AB03E9030076
:10047400FFF7DAFF55B10D4B5B68C3F30223083372
:100484006B4413F8083C20FA03F32B604CB1074B80
:100494005B68C3F3C22308336B4413F8083CD840A9
:1004A400206003B030BD00BFBC1200080010024041
:1004B400024A936903439361704700BF00100240EE
:1004C400024AD3690343D361704700BF001002405E
:1004D40030B583B004460D46C26822F4B05222F00F
:1004E4000C021204120C8B7A09890B43A9880B4362
:1004F4001343C360026922F440521204120CEB88C5
:1005040013430361426922F440721204120CAB8952
:1005140013434361134B98421ED0002101A8FFF7F7
:100524009DFF019B03EB830303EB83032A68920083
:10053400B3FBF2F30C49A1FB03025209642002FB52
:1005440010331B013233A1FB0313C3F3431343EAF8
:100554000213A36003B030BD01A90020FFF77EFFA2
:10056400DFE700BF003801401F85EB51C36843F447
:100574000053C3607047436861F3080343607047E6
:100584000368194214BF01200020704782B0294A31
:10059400136843F4803313600023019302E0019B4A
:1005A40001330193019BB3F5A04F04D2214B1B6887
:1005B40013F4003FF3D01F4B1B6813F4003F36D0F5
:1005C4001D4B1A6842F010021A601A68022161F386
:1005D40002021A60A3F580535A686FF307125A6037
:1005E4005A686FF3CD225A605A68042161F30A22D3
:1005F4005A605A6842F480325A605A68072161F39B
:1006040095425A601A6842F080721A60094B1B685E
:1006140013F0007FFAD0074B5A68022161F30102FC
:100624005A60044B5B68C3F38103022BF9D102B017
:10063400704700BF001002400020024008B5FFF7D9
:10064400A5FF08BD08B5104B1A6842F001021A60F4
:1006540059680E4A0A405A601A6822F0847222F4D9
:1006640080321A601A686FF392421A605A6822F450
:10067400FE025A604FF41F029A60FFF7DFFF044B3B
:100684004FF000629A6008BD001002400000FFF8BD
:1006940000ED00E07047FEE7FEE7FEE7FEE7704787
:1006A40070477047024A136801331360704700BFF4
:1006B400A400002010B5044680210548FFF760FF20
:1006C4000028F9D0A1B20248FFF755FF204610BD1B
:1006D4000038014070B50C461646002504E014F8B5
:1006E400010BFFF7E7FF0135B542F8DB304670BD7B
:1006F400044B00221A60034B1B68B3F5FA7FFAD34C
:10070400704700BFA400002000B585B0FFF79AFF32
:100714000020FFF785FD0120FFF782FD4FF4E13350
:1007240000930020ADF80C0008238DF80A30ADF8D2
:100734000800ADF80600ADF804006946FFF7A2FD15
:10074400104B1B68104AA2FB03239B09013BB3F126
:10075400807F0AD24FF0E02253610C4BF02183F8E2
:1007640023100023936107231361094800F0D2F892
:100774000020FFF779FD0120FFF776FDFFF7B8FFB2
:10078400F3E700BF20000020D34D621000ED00E02D
:10079400F01200080C480D490D4A002302E0D45819
:1007A400C4500433C4188C42F9D30A4A0A4C0023B7
:1007B40001E013600432A242FBD3FFF743FF00F0D1
:1007C4000FF8FFF7A1FF7047000000208800002009
:1007D4007813000888000020BC000020FEE7000019
:1007E40070B500260C4D0D4C641BA410A64209D113
:1007F40000F04EFD00260A4D0A4C641BA410A642CC
:1008040005D170BD55F8043B98470136EEE755F81D
:10081400043B98470136F2E7701300087013000890
:10082400701300087413000803460244934200D175
:10083400704703F8011BF9E770B50E46054618B179
:1008440083690BB900F044FAAB69AC6813B9284664
:1008540000F03EFA2C4B9C4220D16C68636EDB079F
:1008640005D4A389980502D4A06D00F0CFFAA3891A
:1008740019071DD52369DBB1013EA36816F8011FD2
:10088400013BA36039BB002B38DA22460A212846F3
:1008940000F048F8013011D00A2511E01B4B9C42AE
:1008A40001D1AC68DAE71A4B9C4208BFEC68D5E783
:1008B4002146284600F088F80028DDD04FF0FF35A7
:1008C400636EDA0705D4A3899B0502D4A06D00F0FA
:1008D4009EFA284670BD002B04DAA2699A4206DC0F
:1008E4000A2904D023685A1C22601970C5E72246DD
:1008F400284600F017F80130BFD1DFE70A25236846
:100904005A1C22601D70DBE73013000850130008E6
:1009140010130008024B01461868FFF78DBF00BF93
:1009240024000020F8B50E461446054618B1836924
:100934000BB900F0CDF9214B9C422BD16C68A36913
:10094400A360A3891A072FD523696BB32369206891
:10095400F6B2C01A63693746834204DC214628464E
:1009640000F022F930BBA3680130013BA360236887
:100974005A1C22601E706369834204D0A389DB077A
:1009840006D50A2E04D12146284600F00DF988B96F
:100994003846F8BD0A4B9C4201D1AC68CFE7094BFD
:1009A4009C4208BFEC68CAE72146284600F00CF8D0
:1009B4000028CBD04FF0FF37EAE700BF3013000820
:1009C4005013000810130008324B70B51D6806461A
:1009D4000C4625B1AB6913B9284600F079F92E4BC2
:1009E4009C420FD16C68A389B4F90C2019072CD44C
:1009F400DD0611D40923336042F040034FF0FF3089
:100A0400A3813EE0254B9C4201D1AC68EBE7244B2B
:100A14009C4208BFEC68E6E7580712D5616B41B108
:100A240004F14403994202D0304600F057FA0023FF
:100A34006363A38923F02403A381002363602369F0
:100A44002360A38943F00803A38123694BB9A389D5
:100A540003F42073B3F5007F03D02146304600F041
:100A6400FDF9A089B4F90C2010F001030AD0002389
:100A7400A36063695B42A361236943B910F08000FA
:100A8400BAD170BD810758BF6369A360F4E7002041
:100A9400F7E700BF240000203013000850130008BB
:100AA400101300088A89F8B5054610070C4657D478
:100AB4004B68002B04DC0B6C002B01DC0020F8BD20
:100AC400E66A002EFAD0002312F480522F682B60BD
:100AD40032D0606DA3895A0705D56368C01A636B69
:100AE4000BB1236CC01A00230246E66A2846216A29
:100AF400B047431CA38906D129681D292CD8294A4B
:100B0400CA40D60728D5002262602269D90422602F
:100B140004D5421C01D12B6803B96065616B2F6059
:100B24000029CBD004F14403994202D0284600F0B6
:100B3400D5F900206063C2E7216A01232846B04743
:100B4400411CC7D12B68002BC4D01D2B01D0162B00
:100B540001D12F60B2E7A38943F04003A381AEE73C
:100B64000F69002FAAD0930718BF00230E6808BF8F
:100B74004B69F61B0F608B60002E9FDD33463A46AF
:100B84002846216AD4F828C0E047002806DCA38957
:100B94004FF0FF3043F04003A38190E70744361A37
:100BA400EAE700BF0100402038B50B6905460C4652
:100BB40013B90025284638BD18B183690BB900F074
:100BC40087F8144B9C421BD16C68B4F90C30002B91
:100BD400EFD0626ED00704D4990502D4A06D00F062
:100BE40015F928462146FFF75DFF636E0546DA07CF
:100BF400E0D4A3899B05DDD4A06D00F008F9D9E702
:100C0400054B9C4201D1AC68DFE7044B9C4208BF12
:100C1400EC68DAE7301300085013000810130008DA
:100C2400002310B50446C0E90033C0E904338360EF
:100C340081814366C2818361194608225C30FFF7D3
:100C4400F3FD054B24626362044BA362044BE3622D
:100C5400044B236310BD00BFB9100008DB1000086B
:100C64001311000837110008014900F0AFB800BFA4
:100C7400AD0B0008682270B54D1E55430E4605F1B4
:100C8400740100F093F9044640B10021C0E9001654
:100C94000C30A06005F16802FFF7C6FD204670BD68
:100CA400014800F0B3B800BFA9000020014800F0DB
:100CB400AEB800BFA9000020014800F0A7B800BFEB
:100CC400AA000020014800F0A2B800BFAA0000203A
:100CD40010B50446FFF7F0FFA3691BB1BDE810404F
:100CE400FFF7F0BFC4E912332365134B134A1B68A3
:100CF400A262A34208BF0123204608BFA36100F0FB
:100D04001FF86060204600F01BF8A060204600F049
:100D140017F800220421E0606068FFF781FF0122D8
:100D24000921A068FFF77CFF02221221E068FFF787
:100D340077FF0123A361D1E70C1300086D0C0008B1
:100D4400F8B50746FFF7ACFF1E4B1E68B36913B92D
:100D54003046FFF7BDFF4836D6E90134013B03D5E1
:100D640033680BB33668F7E7B4F90C50D5B9164BB2
:100D740004F15800E360656600F047F8FFF796FF5A
:100D840008222946C4E90155C4E904552560A56132
:100D940004F15C00FFF748FDC4E90D55C4E91255A0
:100DA4002046F8BD6834D9E704213846FFF762FFCE
:100DB400044630600028D5D1FFF778FF0C233B6050
:100DC400EEE700BF0C1300080100FFFF2DE9F84314
:100DD40006468846002700F14804D4E90195B9F194
:100DE400010905D52468002CF7D13846BDE8F883FD
:100DF400AB89012B07D9B5F90E30013303D029464D
:100E04003046C04707436835E9E770477047704785
:100E140070B50E46B1F90E10144600291D4696B061
:100E240008DA0022B6F90C302A601A0610D44FF4FE
:100E340080630EE06A4600F0A3F90028F1DB019A12
:100E440002F47042A2F500535A425A412A60EEE776
:100E540040230020236016B070BD00008B8973B559
:100E64009D0706460C4607D504F14703236023611A
:100E74000123636102B070BD6A4601ABFFF7C8FF8E
:100E840000990546304600F091F848B9B4F90C30A1
:100E94009A05EFD423F0030343F00203A381E3E7AD
:100EA4000D4BB362A389206043F08003A381009BB0
:100EB40020616361019B5BB13046B4F90E1000F010
:100EC40071F928B1A38923F0030343F00103A3813B
:100ED400A0890543A581CDE76D0C000838B505460A
:100EE400002940D051F8043C0C1F002BB8BFE41873
:100EF40000F07AF91C4A136833B963601460284619
:100F0400BDE8384000F076B9A34208D9206821181A
:100F14008B4201BF19685B6809182160EDE71A4626
:100F24005B680BB1A342FAD911685018A0420BD1E7
:100F340020680144501883421160E0D118685B684E
:100F4400014411605360DAE702D90C232B60D6E721
:100F5400206821188B4201BF19685B680918216059
:100F640063605460CBE738BDAC00002070B50E4E12
:100F74000C463168054611B900F08CF83060214602
:100F8400284600F087F8431C0AD0C41C24F003044C
:100F9400A04207D0211A284600F07CF8013001D184
:100FA4004FF0FF34204670BDB00000202DE9F04121
:100FB400CD1C25F0030508350C2D38BF0C25002D5C
:100FC400074601DBA94205D90C2300263B603046C5
:100FD400BDE8F0812E4E00F007F933681C4634BB9F
:100FE40029463846FFF7C2FF431C04464DD13468F6
:100FF4002646002E40D123683146384604EB0308C8
:1010040000F048F880453AD1216803356D1A25F07F
:10101400030508350C2D38BF0C2538462946FFF743
:10102400A5FF01302BD023682B4423600EE02268F7
:10103400521B1ED40B2A16D96119A342256018BF6E
:101044005960636808BF316062514B60384604F1EF
:101054000B0600F0CFF826F00706231DF21AB6D0CF
:101064009B1BA350B3E76268A3420CBF32605A6073
:10107400ECE723466468B2E734467668B9E70C23A4
:1010840038463B6000F0B6F8A1E72560DEE700BF14
:10109400AC00002038B50023054D044608462B60FB
:1010A40000F0E8F8431C02D12B6803B1236038BD7B
:1010B400B400002010B50C46B1F90E1000F0A0F8F1
:1010C4000028ABBF636DA3891B1823F48053ACBF06
:1010D4006365A38110BD2DE9F0411F468B89054648
:1010E400DB050C46164605D502230022B1F90E1085
:1010F40000F068F8A389324623F48053A38128467C
:101104003B46B4F90E10BDE8F04100F017B810B535
:101114000C46B1F90E1000F055F8431CA38915BF15
:10112400606523F4805343F48053A38118BFA381E3
:1011340010BDB1F90E1000F013B8000038B5044624
:10114400084611460022054D2A601A46FFF7C2FAE6
:10115400431C02D12B6803B1236038BDB4000020C6
:1011640038B50023054D044608462B6000F05AF8B4
:10117400431C02D12B6803B1236038BDB4000020A6
:1011840038B50023064D0446084611462B6000F08E
:1011940051F8431C02D12B6803B1236038BD00BF52
:1011A400B400002038B50023054D044608462B60E2
:1011B40000F048F8431C02D12B6803B1236038BD0A
:1011C400B400002038B50446084611460022054DF7
:1011D4002A601A4600F03EF8431C02D12B6803B182
:1011E400236038BDB40000200148FFF70FBE00BFE4
:1011F400A80000200148FFF70ABE00BFA800002095
:1012040038B50446084611460022054D2A601A46A0
:1012140000F028F8431C02D12B6803B1236038BDC9
:10122400B40000205822024B4FF0FF301A60704780
:10123400B40000205822024B4FF0FF301A60704770
:10124400B40000205822024B00201A60704700BFEF
:10125400B40000205822024B4FF0FF301A60704750
:10126400B40000205822024B4FF0FF301A60704740
:10127400B4000020044A05491368002B08BF0B463C
:101284001844106018467047B8000020C0000020C1
:10129400F8B500BFF8BC08BC9E467047F8B500BF5F
:0812A400F8BC08BC9E4670472F
:1012AC00000000000000000001020304060708090A
:1012BC000000000001020304000408000400000008
:1012CC000400000000020400040000000400000000
:1012DC000040000000000200400000004000000040
:1012EC00400020004D616B6566696C652054656D2E
:1012FC00706C6174652052756E696E67200D00000C
:10130C002800002000000000000000000000000089
:10131C0000000000000000000000000000000000C1
:10132C0000000000000000000000000000000000B1
:10133C0000000000000000000000000000000000A1
:10134C000000000000000000000000000000000091
:10135C000000000000000000000000000000000081
:04136C00000000007D
:041370000902000866
:04137400E501000887
:101378000008014000080140000801400008014041
:1013880000380140004400400018014000180140A6
:1013980000A24A04280000200000000030130008C2
:1013A800501300081013000800000000000000009F
:1013B8000000000000000000000000000000000025
:1013C8000000000000000000000000000000000015
:1013D8000000000000000000000000000000000005
:1013E80000000000000000000000000000000000F5
:0813F8000000000000000000ED
:04000005080007994F
:00000001FF
